{
  "contractName": "StokVel",
  "abi": [
    {
      "constant": true,
      "inputs": [
        {
          "name": "",
          "type": "uint256"
        }
      ],
      "name": "proposals",
      "outputs": [
        {
          "name": "recipient",
          "type": "address"
        },
        {
          "name": "amount",
          "type": "uint256"
        },
        {
          "name": "description",
          "type": "string"
        },
        {
          "name": "executed",
          "type": "bool"
        },
        {
          "name": "currentResult",
          "type": "int256"
        },
        {
          "name": "proposalHash",
          "type": "bytes32"
        },
        {
          "name": "creationDate",
          "type": "uint256"
        }
      ],
      "payable": false,
      "stateMutability": "view",
      "type": "function"
    },
    {
      "constant": true,
      "inputs": [
        {
          "name": "",
          "type": "address"
        }
      ],
      "name": "memberId",
      "outputs": [
        {
          "name": "",
          "type": "uint256"
        }
      ],
      "payable": false,
      "stateMutability": "view",
      "type": "function"
    },
    {
      "constant": true,
      "inputs": [],
      "name": "numProposals",
      "outputs": [
        {
          "name": "",
          "type": "uint256"
        }
      ],
      "payable": false,
      "stateMutability": "view",
      "type": "function"
    },
    {
      "constant": true,
      "inputs": [
        {
          "name": "",
          "type": "uint256"
        }
      ],
      "name": "members",
      "outputs": [
        {
          "name": "member",
          "type": "address"
        },
        {
          "name": "name",
          "type": "string"
        },
        {
          "name": "memberSince",
          "type": "uint256"
        }
      ],
      "payable": false,
      "stateMutability": "view",
      "type": "function"
    },
    {
      "constant": true,
      "inputs": [],
      "name": "owner",
      "outputs": [
        {
          "name": "",
          "type": "address"
        }
      ],
      "payable": false,
      "stateMutability": "view",
      "type": "function"
    },
    {
      "constant": false,
      "inputs": [
        {
          "name": "_from",
          "type": "address"
        },
        {
          "name": "_value",
          "type": "uint256"
        },
        {
          "name": "_token",
          "type": "address"
        },
        {
          "name": "_extraData",
          "type": "bytes"
        }
      ],
      "name": "receiveApproval",
      "outputs": [],
      "payable": false,
      "stateMutability": "nonpayable",
      "type": "function"
    },
    {
      "constant": false,
      "inputs": [
        {
          "name": "newOwner",
          "type": "address"
        }
      ],
      "name": "transferOwnership",
      "outputs": [],
      "payable": false,
      "stateMutability": "nonpayable",
      "type": "function"
    },
    {
      "payable": true,
      "stateMutability": "payable",
      "type": "fallback"
    },
    {
      "anonymous": false,
      "inputs": [
        {
          "indexed": false,
          "name": "proposalID",
          "type": "uint256"
        },
        {
          "indexed": false,
          "name": "recipient",
          "type": "address"
        },
        {
          "indexed": false,
          "name": "amount",
          "type": "uint256"
        },
        {
          "indexed": false,
          "name": "description",
          "type": "string"
        }
      ],
      "name": "ProposalAdded",
      "type": "event"
    },
    {
      "anonymous": false,
      "inputs": [
        {
          "indexed": false,
          "name": "proposalID",
          "type": "uint256"
        },
        {
          "indexed": false,
          "name": "position",
          "type": "bool"
        },
        {
          "indexed": false,
          "name": "voter",
          "type": "address"
        },
        {
          "indexed": false,
          "name": "justification",
          "type": "string"
        }
      ],
      "name": "Voted",
      "type": "event"
    },
    {
      "anonymous": false,
      "inputs": [
        {
          "indexed": false,
          "name": "proposalID",
          "type": "uint256"
        },
        {
          "indexed": false,
          "name": "result",
          "type": "int256"
        },
        {
          "indexed": false,
          "name": "deadline",
          "type": "uint256"
        }
      ],
      "name": "ProposalExecuted",
      "type": "event"
    },
    {
      "anonymous": false,
      "inputs": [
        {
          "indexed": false,
          "name": "member",
          "type": "address"
        },
        {
          "indexed": false,
          "name": "isMember",
          "type": "bool"
        }
      ],
      "name": "MembershipChanged",
      "type": "event"
    },
    {
      "anonymous": false,
      "inputs": [
        {
          "indexed": false,
          "name": "sender",
          "type": "address"
        },
        {
          "indexed": false,
          "name": "amount",
          "type": "uint256"
        }
      ],
      "name": "receivedEther",
      "type": "event"
    },
    {
      "anonymous": false,
      "inputs": [
        {
          "indexed": false,
          "name": "_from",
          "type": "address"
        },
        {
          "indexed": false,
          "name": "_value",
          "type": "uint256"
        },
        {
          "indexed": false,
          "name": "_token",
          "type": "address"
        },
        {
          "indexed": false,
          "name": "_extraData",
          "type": "bytes"
        }
      ],
      "name": "receivedTokens",
      "type": "event"
    },
    {
      "constant": false,
      "inputs": [
        {
          "name": "founder",
          "type": "address"
        },
        {
          "name": "initialMembers",
          "type": "address[]"
        },
        {
          "name": "minimumAmountOfMinutes",
          "type": "uint256"
        }
      ],
      "name": "TimeLockMultisig",
      "outputs": [],
      "payable": true,
      "stateMutability": "payable",
      "type": "function"
    },
    {
      "constant": false,
      "inputs": [
        {
          "name": "targetMember",
          "type": "address"
        },
        {
          "name": "memberName",
          "type": "string"
        }
      ],
      "name": "addMember",
      "outputs": [],
      "payable": false,
      "stateMutability": "nonpayable",
      "type": "function"
    },
    {
      "constant": false,
      "inputs": [
        {
          "name": "targetMember",
          "type": "address"
        }
      ],
      "name": "removeMember",
      "outputs": [],
      "payable": false,
      "stateMutability": "nonpayable",
      "type": "function"
    },
    {
      "constant": false,
      "inputs": [
        {
          "name": "newMembers",
          "type": "address[]"
        },
        {
          "name": "canVote",
          "type": "bool"
        }
      ],
      "name": "changeMembers",
      "outputs": [],
      "payable": false,
      "stateMutability": "nonpayable",
      "type": "function"
    },
    {
      "constant": false,
      "inputs": [
        {
          "name": "beneficiary",
          "type": "address"
        },
        {
          "name": "weiAmount",
          "type": "uint256"
        },
        {
          "name": "jobDescription",
          "type": "string"
        },
        {
          "name": "transactionBytecode",
          "type": "bytes"
        }
      ],
      "name": "newProposal",
      "outputs": [
        {
          "name": "proposalID",
          "type": "uint256"
        }
      ],
      "payable": false,
      "stateMutability": "nonpayable",
      "type": "function"
    },
    {
      "constant": false,
      "inputs": [
        {
          "name": "beneficiary",
          "type": "address"
        },
        {
          "name": "etherAmount",
          "type": "uint256"
        },
        {
          "name": "jobDescription",
          "type": "string"
        },
        {
          "name": "transactionBytecode",
          "type": "bytes"
        }
      ],
      "name": "newProposalInEther",
      "outputs": [
        {
          "name": "proposalID",
          "type": "uint256"
        }
      ],
      "payable": false,
      "stateMutability": "nonpayable",
      "type": "function"
    },
    {
      "constant": true,
      "inputs": [
        {
          "name": "proposalNumber",
          "type": "uint256"
        },
        {
          "name": "beneficiary",
          "type": "address"
        },
        {
          "name": "weiAmount",
          "type": "uint256"
        },
        {
          "name": "transactionBytecode",
          "type": "bytes"
        }
      ],
      "name": "checkProposalCode",
      "outputs": [
        {
          "name": "codeChecksOut",
          "type": "bool"
        }
      ],
      "payable": false,
      "stateMutability": "view",
      "type": "function"
    },
    {
      "constant": false,
      "inputs": [
        {
          "name": "proposalNumber",
          "type": "uint256"
        },
        {
          "name": "supportsProposal",
          "type": "bool"
        },
        {
          "name": "justificationText",
          "type": "string"
        }
      ],
      "name": "vote",
      "outputs": [],
      "payable": false,
      "stateMutability": "nonpayable",
      "type": "function"
    },
    {
      "constant": true,
      "inputs": [
        {
          "name": "proposalNumber",
          "type": "uint256"
        }
      ],
      "name": "proposalDeadline",
      "outputs": [
        {
          "name": "deadline",
          "type": "uint256"
        }
      ],
      "payable": false,
      "stateMutability": "view",
      "type": "function"
    },
    {
      "constant": true,
      "inputs": [
        {
          "name": "a",
          "type": "uint256"
        },
        {
          "name": "b",
          "type": "uint256"
        }
      ],
      "name": "calculateFactor",
      "outputs": [
        {
          "name": "factor",
          "type": "uint256"
        }
      ],
      "payable": false,
      "stateMutability": "view",
      "type": "function"
    },
    {
      "constant": false,
      "inputs": [
        {
          "name": "proposalNumber",
          "type": "uint256"
        },
        {
          "name": "transactionBytecode",
          "type": "bytes"
        }
      ],
      "name": "executeProposal",
      "outputs": [],
      "payable": false,
      "stateMutability": "nonpayable",
      "type": "function"
    }
  ],
  "bytecode": "0x6080604052600a600555336000806101000a81548173ffffffffffffffffffffffffffffffffffffffff021916908373ffffffffffffffffffffffffffffffffffffffff160217905550612415806100586000396000f3006080604052600436106100fc576000357c0100000000000000000000000000000000000000000000000000000000900463ffffffff168063013cf08b146101695780630b1ca49a14610271578063159887d1146102b457806315bef9cd146102ff578063237e94921461037157806339106821146103e4578063400e39491461043b5780635daf08ca146104665780638da5cb5b146105465780638f4ffcb11461059d578063b1050da514610650578063b154224e1461073d578063b9f256cd146107c0578063c01f9e37146108ad578063c127c247146108ee578063d3c0715b14610977578063eceb2945146109f6578063f2fde38b14610aab575b7fa398b89ba344a0b23a0b9de53db298b2a1a868b396c1878b7e9dcbafecd49b133334604051808373ffffffffffffffffffffffffffffffffffffffff1673ffffffffffffffffffffffffffffffffffffffff1681526020018281526020019250505060405180910390a1005b34801561017557600080fd5b5061019460048036038101908080359060200190929190505050610aee565b604051808873ffffffffffffffffffffffffffffffffffffffff1673ffffffffffffffffffffffffffffffffffffffff16815260200187815260200180602001861515151581526020018581526020018460001916600019168152602001838152602001828103825287818151815260200191508051906020019080838360005b83811015610230578082015181840152602081019050610215565b50505050905090810190601f16801561025d5780820380516001836020036101000a031916815260200191505b509850505050505050505060405180910390f35b34801561027d57600080fd5b506102b2600480360381019080803573ffffffffffffffffffffffffffffffffffffffff169060200190929190505050610c04565b005b3480156102c057600080fd5b506102e96004803603810190808035906020019092919080359060200190929190505050610e6a565b6040518082815260200191505060405180910390f35b34801561030b57600080fd5b5061036f60048036038101908080359060200190820180359060200190808060200260200160405190810160405280939291908181526020018383602002808284378201915050505050509192919290803515159060200190929190505050610e89565b005b34801561037d57600080fd5b506103e260048036038101908080359060200190929190803590602001908201803590602001908080601f0160208091040260200160405190810160405280939291908181526020018383808284378201915050505050509192919290505050610f07565b005b3480156103f057600080fd5b50610425600480360381019080803573ffffffffffffffffffffffffffffffffffffffff1690602001909291905050506110d3565b6040518082815260200191505060405180910390f35b34801561044757600080fd5b506104506110eb565b6040518082815260200191505060405180910390f35b34801561047257600080fd5b50610491600480360381019080803590602001909291905050506110f1565b604051808473ffffffffffffffffffffffffffffffffffffffff1673ffffffffffffffffffffffffffffffffffffffff16815260200180602001838152602001828103825284818151815260200191508051906020019080838360005b838110156105095780820151818401526020810190506104ee565b50505050905090810190601f1680156105365780820380516001836020036101000a031916815260200191505b5094505050505060405180910390f35b34801561055257600080fd5b5061055b6111e2565b604051808273ffffffffffffffffffffffffffffffffffffffff1673ffffffffffffffffffffffffffffffffffffffff16815260200191505060405180910390f35b3480156105a957600080fd5b5061064e600480360381019080803573ffffffffffffffffffffffffffffffffffffffff16906020019092919080359060200190929190803573ffffffffffffffffffffffffffffffffffffffff169060200190929190803590602001908201803590602001908080601f0160208091040260200160405190810160405280939291908181526020018383808284378201915050505050509192919290505050611207565b005b34801561065c57600080fd5b50610727600480360381019080803573ffffffffffffffffffffffffffffffffffffffff16906020019092919080359060200190929190803590602001908201803590602001908080601f0160208091040260200160405190810160405280939291908181526020018383808284378201915050505050509192919290803590602001908201803590602001908080601f016020809104026020016040519081016040528093929190818152602001838380828437820191505050505050919291929050505061143c565b6040518082815260200191505060405180910390f35b6107be600480360381019080803573ffffffffffffffffffffffffffffffffffffffff169060200190929190803590602001908201803590602001908080602002602001604051908101604052809392919081815260200183836020028082843782019150505050505091929192908035906020019092919050505061171a565b005b3480156107cc57600080fd5b50610897600480360381019080803573ffffffffffffffffffffffffffffffffffffffff16906020019092919080359060200190929190803590602001908201803590602001908080601f0160208091040260200160405190810160405280939291908181526020018383808284378201915050505050509192919290803590602001908201803590602001908080601f0160208091040260200160405190810160405280939291908181526020018383808284378201915050505050509192919290505050611818565b6040518082815260200191505060405180910390f35b3480156108b957600080fd5b506108d860048036038101908080359060200190929190505050611888565b6040518082815260200191505060405180910390f35b3480156108fa57600080fd5b50610975600480360381019080803573ffffffffffffffffffffffffffffffffffffffff169060200190929190803590602001908201803590602001908080601f01602080910402602001604051908101604052809392919081815260200183838082843782019150505050505091929192905050506118db565b005b34801561098357600080fd5b506109f460048036038101908080359060200190929190803515159060200190929190803590602001908201803590602001908080601f0160208091040260200160405190810160405280939291908181526020018383808284378201915050505050509192919290505050611b5c565b005b348015610a0257600080fd5b50610a9160048036038101908080359060200190929190803573ffffffffffffffffffffffffffffffffffffffff16906020019092919080359060200190929190803590602001908201803590602001908080601f0160208091040260200160405190810160405280939291908181526020018383808284378201915050505050509192919290505050611e84565b604051808215151515815260200191505060405180910390f35b348015610ab757600080fd5b50610aec600480360381019080803573ffffffffffffffffffffffffffffffffffffffff169060200190929190505050611f6d565b005b600181815481101515610afd57fe5b90600052602060002090600902016000915090508060000160009054906101000a900473ffffffffffffffffffffffffffffffffffffffff1690806001015490806002018054600181600116156101000203166002900480601f016020809104026020016040519081016040528092919081815260200182805460018160011615610100020316600290048015610bd55780601f10610baa57610100808354040283529160200191610bd5565b820191906000526020600020905b815481529060010190602001808311610bb857829003601f168201915b5050505050908060030160009054906101000a900460ff16908060040154908060050154908060060154905087565b60008060009054906101000a900473ffffffffffffffffffffffffffffffffffffffff1673ffffffffffffffffffffffffffffffffffffffff163373ffffffffffffffffffffffffffffffffffffffff16141515610c6157600080fd5b6000600360008473ffffffffffffffffffffffffffffffffffffffff1673ffffffffffffffffffffffffffffffffffffffff1681526020019081526020016000205414151515610cb057600080fd5b600360008373ffffffffffffffffffffffffffffffffffffffff1673ffffffffffffffffffffffffffffffffffffffff1681526020019081526020016000205490505b600160048054905003811015610de957600460018201815481101515610d1557fe5b9060005260206000209060030201600482815481101515610d3257fe5b90600052602060002090600302016000820160009054906101000a900473ffffffffffffffffffffffffffffffffffffffff168160000160006101000a81548173ffffffffffffffffffffffffffffffffffffffff021916908373ffffffffffffffffffffffffffffffffffffffff16021790555060018201816001019080546001816001161561010002031660029004610dce92919061200b565b50600282015481600201559050508080600101915050610cf3565b6004600160048054905003815481101515610e0057fe5b9060005260206000209060030201600080820160006101000a81549073ffffffffffffffffffffffffffffffffffffffff0219169055600182016000610e469190612092565b600282016000905550506004805480919060019003610e6591906120da565b505050565b60008183601402811515610e7a57fe5b0460140360020a905092915050565b60008090505b8251811015610f02578115610ed457610ecf8382815181101515610eaf57fe5b9060200190602002015160206040519081016040528060008152506118db565b610ef5565b610ef48382815181101515610ee557fe5b90602001906020020151610c04565b5b8080600101915050610e8f565b505050565b6000600183815481101515610f1857fe5b90600052602060002090600902019050610f3183611888565b4210158015610f44575060008160040154135b8015610f5f57508060030160009054906101000a900460ff16155b8015610f9b5750610f9a838260000160009054906101000a900473ffffffffffffffffffffffffffffffffffffffff16836001015485611e84565b5b1515610fa657600080fd5b60018160030160006101000a81548160ff0219169083151502179055508060000160009054906101000a900473ffffffffffffffffffffffffffffffffffffffff1673ffffffffffffffffffffffffffffffffffffffff1681600101548360405180828051906020019080838360005b83811015611031578082015181840152602081019050611016565b50505050905090810190601f16801561105e5780820380516001836020036101000a031916815260200191505b5091505060006040518083038185875af192505050151561107b57fe5b7fc8e780a743bb79c7e7221b794df13b67119fc788bcabd46747d91a74434c3b6b8382600401546110ab86611888565b60405180848152602001838152602001828152602001935050505060405180910390a1505050565b60036020528060005260406000206000915090505481565b60025481565b60048181548110151561110057fe5b90600052602060002090600302016000915090508060000160009054906101000a900473ffffffffffffffffffffffffffffffffffffffff1690806001018054600181600116156101000203166002900480601f0160208091040260200160405190810160405280929190818152602001828054600181600116156101000203166002900480156111d25780601f106111a7576101008083540402835291602001916111d2565b820191906000526020600020905b8154815290600101906020018083116111b557829003601f168201915b5050505050908060020154905083565b6000809054906101000a900473ffffffffffffffffffffffffffffffffffffffff1681565b60008290508073ffffffffffffffffffffffffffffffffffffffff166323b872dd8630876040518463ffffffff167c0100000000000000000000000000000000000000000000000000000000028152600401808473ffffffffffffffffffffffffffffffffffffffff1673ffffffffffffffffffffffffffffffffffffffff1681526020018373ffffffffffffffffffffffffffffffffffffffff1673ffffffffffffffffffffffffffffffffffffffff1681526020018281526020019350505050602060405180830381600087803b1580156112e357600080fd5b505af11580156112f7573d6000803e3d6000fd5b505050506040513d602081101561130d57600080fd5b8101908080519060200190929190505050151561132957600080fd5b7f0eeb71b8926d7ed8f47a2cedf6b9b204e2001344c7fa20c696c9f06ea7c413c685858585604051808573ffffffffffffffffffffffffffffffffffffffff1673ffffffffffffffffffffffffffffffffffffffff1681526020018481526020018373ffffffffffffffffffffffffffffffffffffffff1673ffffffffffffffffffffffffffffffffffffffff16815260200180602001828103825283818151815260200191508051906020019080838360005b838110156113f85780820151818401526020810190506113dd565b50505050905090810190601f1680156114255780820380516001836020036101000a031916815260200191505b509550505050505060405180910390a15050505050565b6000806000600360003373ffffffffffffffffffffffffffffffffffffffff1673ffffffffffffffffffffffffffffffffffffffff168152602001908152602001600020541415151561148e57600080fd5b600180548091906001016114a2919061210c565b91506001828154811015156114b357fe5b90600052602060002090600902019050858160000160006101000a81548173ffffffffffffffffffffffffffffffffffffffff021916908373ffffffffffffffffffffffffffffffffffffffff1602179055508481600101819055508381600201908051906020019061152792919061213e565b50858584604051808473ffffffffffffffffffffffffffffffffffffffff1673ffffffffffffffffffffffffffffffffffffffff166c0100000000000000000000000002815260140183815260200182805190602001908083835b6020831015156115a75780518252602082019150602081019050602083039250611582565b6001836020036101000a0380198251168184511680821785525050505050509050019350505050604051809103902081600501816000191690555060008160030160006101000a81548160ff0219169083151502179055504281600601819055507f646fec02522b41e7125cfc859a64fd4f4cefd5dc3b6237ca0abe251ded1fa88182878787604051808581526020018473ffffffffffffffffffffffffffffffffffffffff1673ffffffffffffffffffffffffffffffffffffffff16815260200183815260200180602001828103825283818151815260200191508051906020019080838360005b838110156116ab578082015181840152602081019050611690565b50505050905090810190601f1680156116d85780820380516001836020036101000a031916815260200191505b509550505050505060405180910390a16001820160028190555061170e8260016020604051908101604052806000815250611b5c565b81915050949350505050565b60008373ffffffffffffffffffffffffffffffffffffffff1614151561177b57826000806101000a81548173ffffffffffffffffffffffffffffffffffffffff021916908373ffffffffffffffffffffffffffffffffffffffff1602179055505b60008114151561178d57806005819055505b6117a8600060206040519081016040528060008152506118db565b6118086000809054906101000a900473ffffffffffffffffffffffffffffffffffffffff166040805190810160405280600781526020017f666f756e646572000000000000000000000000000000000000000000000000008152506118db565b611813826001610e89565b505050565b600080600360003373ffffffffffffffffffffffffffffffffffffffff1673ffffffffffffffffffffffffffffffffffffffff168152602001908152602001600020541415151561186857600080fd5b61187e85670de0b6b3a76400008602858561143c565b9050949350505050565b600080600060018481548110151561189c57fe5b906000526020600020906009020191506118c28260040154600160048054905003610e6a565b9050603c60055482020282600601540192505050919050565b60008060009054906101000a900473ffffffffffffffffffffffffffffffffffffffff1673ffffffffffffffffffffffffffffffffffffffff163373ffffffffffffffffffffffffffffffffffffffff1614151561193857600080fd5b6000600360008573ffffffffffffffffffffffffffffffffffffffff1673ffffffffffffffffffffffffffffffffffffffff1681526020019081526020016000205414156119e457600480549050600360008573ffffffffffffffffffffffffffffffffffffffff1673ffffffffffffffffffffffffffffffffffffffff16815260200190815260200160002081905550600480548091906001016119dd91906120da565b9050611a27565b600360008473ffffffffffffffffffffffffffffffffffffffff1673ffffffffffffffffffffffffffffffffffffffff1681526020019081526020016000205490505b6060604051908101604052808473ffffffffffffffffffffffffffffffffffffffff16815260200183815260200142815250600482815481101515611a6857fe5b906000526020600020906003020160008201518160000160006101000a81548173ffffffffffffffffffffffffffffffffffffffff021916908373ffffffffffffffffffffffffffffffffffffffff1602179055506020820151816001019080519060200190611ad99291906121be565b50604082015181600201559050507f27b022af4a8347100c7a041ce5ccf8e14d644ff05de696315196faae8cd50c9b836001604051808373ffffffffffffffffffffffffffffffffffffffff1673ffffffffffffffffffffffffffffffffffffffff168152602001821515151581526020019250505060405180910390a1505050565b600080600360003373ffffffffffffffffffffffffffffffffffffffff1673ffffffffffffffffffffffffffffffffffffffff1681526020019081526020016000205414151515611bac57600080fd5b600184815481101515611bbb57fe5b90600052602060002090600902019050600115158160080160003373ffffffffffffffffffffffffffffffffffffffff1673ffffffffffffffffffffffffffffffffffffffff16815260200190815260200160002060009054906101000a900460ff16151514151515611c2d57600080fd5b60018160080160003373ffffffffffffffffffffffffffffffffffffffff1673ffffffffffffffffffffffffffffffffffffffff16815260200190815260200160002060006101000a81548160ff0219169083151502179055508215611ca6578060040160008154809291906001019190505550611cbc565b8060040160008154809291906001900391905055505b7fc34f869b7ff431b034b7b9aea9822dac189a685e0b015c7d1be3add3f89128e88484338560405180858152602001841515151581526020018373ffffffffffffffffffffffffffffffffffffffff1673ffffffffffffffffffffffffffffffffffffffff16815260200180602001828103825283818151815260200191508051906020019080838360005b83811015611d63578082015181840152602081019050611d48565b50505050905090810190601f168015611d905780820380516001836020036101000a031916815260200191505b509550505050505060405180910390a1611da984611888565b42118015611dbb575060008160040154135b8015611e5557508060000160009054906101000a900473ffffffffffffffffffffffffffffffffffffffff168160010154604051808373ffffffffffffffffffffffffffffffffffffffff1673ffffffffffffffffffffffffffffffffffffffff166c0100000000000000000000000002815260140182815260200160000192505050604051809103902060001916816005015460001916145b8015611e5e5750825b15611e7e57611e7d846020604051908101604052806000815250610f07565b5b50505050565b600080600186815481101515611e9657fe5b90600052602060002090600902019050848484604051808473ffffffffffffffffffffffffffffffffffffffff1673ffffffffffffffffffffffffffffffffffffffff166c0100000000000000000000000002815260140183815260200182805190602001908083835b602083101515611f255780518252602082019150602081019050602083039250611f00565b6001836020036101000a038019825116818451168082178552505050505050905001935050505060405180910390206000191681600501546000191614915050949350505050565b6000809054906101000a900473ffffffffffffffffffffffffffffffffffffffff1673ffffffffffffffffffffffffffffffffffffffff163373ffffffffffffffffffffffffffffffffffffffff16141515611fc857600080fd5b806000806101000a81548173ffffffffffffffffffffffffffffffffffffffff021916908373ffffffffffffffffffffffffffffffffffffffff16021790555050565b828054600181600116156101000203166002900490600052602060002090601f016020900481019282601f106120445780548555612081565b8280016001018555821561208157600052602060002091601f016020900482015b82811115612080578254825591600101919060010190612065565b5b50905061208e919061223e565b5090565b50805460018160011615610100020316600290046000825580601f106120b857506120d7565b601f0160209004906000526020600020908101906120d6919061223e565b5b50565b815481835581811115612107576003028160030283600052602060002091820191016121069190612263565b5b505050565b8154818355818111156121395760090281600902836000526020600020918201910161213891906122c1565b5b505050565b828054600181600116156101000203166002900490600052602060002090601f016020900481019282601f1061217f57805160ff19168380011785556121ad565b828001600101855582156121ad579182015b828111156121ac578251825591602001919060010190612191565b5b5090506121ba919061223e565b5090565b828054600181600116156101000203166002900490600052602060002090601f016020900481019282601f106121ff57805160ff191683800117855561222d565b8280016001018555821561222d579182015b8281111561222c578251825591602001919060010190612211565b5b50905061223a919061223e565b5090565b61226091905b8082111561225c576000816000905550600101612244565b5090565b90565b6122be91905b808211156122ba57600080820160006101000a81549073ffffffffffffffffffffffffffffffffffffffff02191690556001820160006122a99190612092565b600282016000905550600301612269565b5090565b90565b61235891905b8082111561235457600080820160006101000a81549073ffffffffffffffffffffffffffffffffffffffff0219169055600182016000905560028201600061230f9190612092565b6003820160006101000a81549060ff021916905560048201600090556005820160009055600682016000905560078201600061234b919061235b565b506009016122c7565b5090565b90565b508054600082556002029060005260206000209081019061237c919061237f565b50565b6123e691905b808211156123e257600080820160006101000a81549060ff02191690556000820160016101000a81549073ffffffffffffffffffffffffffffffffffffffff02191690556001820160006123d99190612092565b50600201612385565b5090565b905600a165627a7a7230582041a59a9be80a864657133070bd16fe202990f9b2d8f0fd44fd0e483c4d8c50f30029",
  "source": "pragma solidity ^0.4.16;\r\n\r\ncontract owned {\r\n    address public owner;\r\n\r\n    function owned() {\r\n        owner = msg.sender;\r\n    }\r\n\r\n    modifier onlyOwner {\r\n        require(msg.sender == owner);\r\n        _;\r\n    }\r\n\r\n    function transferOwnership(address newOwner) onlyOwner {\r\n        owner = newOwner;\r\n    }\r\n}\r\n\r\ncontract tokenRecipient {\r\n    event receivedEther(address sender, uint amount);\r\n    event receivedTokens(address _from, uint256 _value, address _token, bytes _extraData);\r\n\r\n    function receiveApproval(address _from, uint256 _value, address _token, bytes _extraData){\r\n        Token t = Token(_token);\r\n        require(t.transferFrom(_from, this, _value));\r\n        receivedTokens(_from, _value, _token, _extraData);\r\n    }\r\n\r\n    function () payable {\r\n        receivedEther(msg.sender, msg.value);\r\n    }\r\n}\r\n\r\ninterface Token {\r\n    function transferFrom(address _from, address _to, uint256 _value) returns (bool success);\r\n}\r\n\r\ncontract StokVel is owned, tokenRecipient {\r\n\r\n    Proposal[] public proposals;\r\n    uint public numProposals;\r\n    mapping (address => uint) public memberId;\r\n    Member[] public members;\r\n    uint minimumTime = 10;\r\n\r\n    event ProposalAdded(uint proposalID, address recipient, uint amount, string description);\r\n    event Voted(uint proposalID, bool position, address voter, string justification);\r\n    event ProposalExecuted(uint proposalID, int result, uint deadline);\r\n    event MembershipChanged(address member, bool isMember);\r\n\r\n    struct Proposal {\r\n        address recipient;\r\n        uint amount;\r\n        string description;\r\n        bool executed;\r\n        int currentResult;\r\n        bytes32 proposalHash;\r\n        uint creationDate;\r\n        Vote[] votes;\r\n        mapping (address => bool) voted;\r\n    }\r\n\r\n    struct Member {\r\n        address member;\r\n        string name;\r\n        uint memberSince;\r\n    }\r\n\r\n    struct Vote {\r\n        bool inSupport;\r\n        address voter;\r\n        string justification;\r\n    }\r\n\r\n    // Modifier that allows only shareholders to vote and create new proposals\r\n    modifier onlyMembers {\r\n        require(memberId[msg.sender] != 0);\r\n        _;\r\n    }\r\n\r\n    /**\r\n     * Constructor function\r\n     *\r\n     * First time setup\r\n     */\r\n    function TimeLockMultisig(address founder, address[] initialMembers, uint minimumAmountOfMinutes) payable {\r\n        if (founder != 0) owner = founder;\r\n        if (minimumAmountOfMinutes !=0) minimumTime = minimumAmountOfMinutes;\r\n        // Its necessary to add an empty first member\r\n        addMember(0, '');\r\n        // and let's add the founder, to save a step later\r\n        addMember(owner, 'founder');\r\n        changeMembers(initialMembers, true);\r\n    }\r\n\r\n    /**\r\n     * Add member\r\n     *\r\n     * @param targetMember address to add as a member\r\n     * @param memberName label to give this member address\r\n     */\r\n    function addMember(address targetMember, string memberName) onlyOwner {\r\n        uint id;\r\n        if (memberId[targetMember] == 0) {\r\n            memberId[targetMember] = members.length;\r\n            id = members.length++;\r\n        } else {\r\n            id = memberId[targetMember];\r\n        }\r\n\r\n        members[id] = Member({member: targetMember, memberSince: now, name: memberName});\r\n        MembershipChanged(targetMember, true);\r\n    }\r\n\r\n    /**\r\n     * Remove member\r\n     *\r\n     * @param targetMember the member to remove\r\n     */\r\n    function removeMember(address targetMember) onlyOwner {\r\n        require(memberId[targetMember] != 0);\r\n\r\n        for (uint i = memberId[targetMember]; i<members.length-1; i++){\r\n            members[i] = members[i+1];\r\n        }\r\n        delete members[members.length-1];\r\n        members.length--;\r\n    }\r\n\r\n    /**\r\n     * Edit existing members\r\n     *\r\n     * @param newMembers array of addresses to update\r\n     * @param canVote new voting value that all the values should be set to\r\n     */\r\n    function changeMembers(address[] newMembers, bool canVote) {\r\n        for (uint i = 0; i < newMembers.length; i++) {\r\n            if (canVote)\r\n                addMember(newMembers[i], '');\r\n            else\r\n                removeMember(newMembers[i]);\r\n        }\r\n    }\r\n\r\n    /**\r\n     * Add Proposal\r\n     *\r\n     * Propose to send `weiAmount / 1e18` ether to `beneficiary` for `jobDescription`. `transactionBytecode ? Contains : Does not contain` code.\r\n     *\r\n     * @param beneficiary who to send the ether to\r\n     * @param weiAmount amount of ether to send, in wei\r\n     * @param jobDescription Description of job\r\n     * @param transactionBytecode bytecode of transaction\r\n     */\r\n    function newProposal(\r\n        address beneficiary,\r\n        uint weiAmount,\r\n        string jobDescription,\r\n        bytes transactionBytecode\r\n    )\r\n        onlyMembers\r\n        returns (uint proposalID)\r\n    {\r\n        proposalID = proposals.length++;\r\n        Proposal storage p = proposals[proposalID];\r\n        p.recipient = beneficiary;\r\n        p.amount = weiAmount;\r\n        p.description = jobDescription;\r\n        p.proposalHash = sha3(beneficiary, weiAmount, transactionBytecode);\r\n        p.executed = false;\r\n        p.creationDate = now;\r\n        ProposalAdded(proposalID, beneficiary, weiAmount, jobDescription);\r\n        numProposals = proposalID+1;\r\n        vote(proposalID, true, '');\r\n\r\n        return proposalID;\r\n    }\r\n\r\n    /**\r\n     * Add proposal in Ether\r\n     *\r\n     * Propose to send `etherAmount` ether to `beneficiary` for `jobDescription`. `transactionBytecode ? Contains : Does not contain` code.\r\n     * This is a convenience function to use if the amount to be given is in round number of ether units.\r\n     *\r\n     * @param beneficiary who to send the ether to\r\n     * @param etherAmount amount of ether to send\r\n     * @param jobDescription Description of job\r\n     * @param transactionBytecode bytecode of transaction\r\n     */\r\n    function newProposalInEther(\r\n        address beneficiary,\r\n        uint etherAmount,\r\n        string jobDescription,\r\n        bytes transactionBytecode\r\n    )\r\n        onlyMembers\r\n        returns (uint proposalID)\r\n    {\r\n        return newProposal(beneficiary, etherAmount * 1 ether, jobDescription, transactionBytecode);\r\n    }\r\n\r\n    /**\r\n     * Check if a proposal code matches\r\n     *\r\n     * @param proposalNumber ID number of the proposal to query\r\n     * @param beneficiary who to send the ether to\r\n     * @param weiAmount amount of ether to send\r\n     * @param transactionBytecode bytecode of transaction\r\n     */\r\n    function checkProposalCode(\r\n        uint proposalNumber,\r\n        address beneficiary,\r\n        uint weiAmount,\r\n        bytes transactionBytecode\r\n    )\r\n        constant\r\n        returns (bool codeChecksOut)\r\n    {\r\n        Proposal storage p = proposals[proposalNumber];\r\n        return p.proposalHash == sha3(beneficiary, weiAmount, transactionBytecode);\r\n    }\r\n\r\n    /**\r\n     * Log a vote for a proposal\r\n     *\r\n     * Vote `supportsProposal? in support of : against` proposal #`proposalNumber`\r\n     *\r\n     * @param proposalNumber number of proposal\r\n     * @param supportsProposal either in favor or against it\r\n     * @param justificationText optional justification text\r\n     */\r\n    function vote(\r\n        uint proposalNumber,\r\n        bool supportsProposal,\r\n        string justificationText\r\n    )\r\n        onlyMembers\r\n    {\r\n        Proposal storage p = proposals[proposalNumber]; // Get the proposal\r\n        require(p.voted[msg.sender] != true);           // If has already voted, cancel\r\n        p.voted[msg.sender] = true;                     // Set this voter as having voted\r\n        if (supportsProposal) {                         // If they support the proposal\r\n            p.currentResult++;                          // Increase score\r\n        } else {                                        // If they don't\r\n            p.currentResult--;                          // Decrease the score\r\n        }\r\n\r\n        // Create a log of this event\r\n        Voted(proposalNumber,  supportsProposal, msg.sender, justificationText);\r\n\r\n        // If you can execute it now, do it\r\n        if ( now > proposalDeadline(proposalNumber)\r\n            && p.currentResult > 0\r\n            && p.proposalHash == sha3(p.recipient, p.amount, '')\r\n            && supportsProposal) {\r\n            executeProposal(proposalNumber, '');\r\n        }\r\n    }\r\n\r\n    function proposalDeadline(uint proposalNumber) constant returns(uint deadline) {\r\n        Proposal storage p = proposals[proposalNumber];\r\n        uint factor = calculateFactor(uint(p.currentResult), (members.length - 1));\r\n        return p.creationDate + uint(factor * minimumTime *  1 minutes);\r\n    }\r\n\r\n    function calculateFactor(uint a, uint b) constant returns (uint factor) {\r\n        return 2**(20 - (20 * a)/b);\r\n    }\r\n\r\n    /**\r\n     * Finish vote\r\n     *\r\n     * Count the votes proposal #`proposalNumber` and execute it if approved\r\n     *\r\n     * @param proposalNumber proposal number\r\n     * @param transactionBytecode optional: if the transaction contained a bytecode, you need to send it\r\n     */\r\n    function executeProposal(uint proposalNumber, bytes transactionBytecode) {\r\n        Proposal storage p = proposals[proposalNumber];\r\n\r\n        require(now >= proposalDeadline(proposalNumber)                                         // If it is past the voting deadline\r\n            && p.currentResult > 0                                                              // and a minimum quorum has been reached\r\n            && !p.executed                                                                      // and it is not currently being executed\r\n            && checkProposalCode(proposalNumber, p.recipient, p.amount, transactionBytecode));  // and the supplied code matches the proposal...\r\n\r\n\r\n        p.executed = true;\r\n        assert(p.recipient.call.value(p.amount)(transactionBytecode));\r\n\r\n        // Fire Events\r\n        ProposalExecuted(proposalNumber, p.currentResult, proposalDeadline(proposalNumber));\r\n    }\r\n}\r\n",
  "sourcePath": "D:\\Projects\\stokcoin\\contracts\\StokVel.sol",
  "compiler": {
    "name": "solc",
    "version": "0.4.24+commit.e67f0147.Emscripten.clang"
  },
  "schemaVersion": "2.0.1",
  "updatedAt": "2018-09-28T14:13:22.560Z"
}