{
  "contractName": "StokVel",
  "abi": [
    {
      "constant": true,
      "inputs": [
        {
          "name": "",
          "type": "uint256"
        }
      ],
      "name": "proposals",
      "outputs": [
        {
          "name": "recipient",
          "type": "address"
        },
        {
          "name": "amount",
          "type": "uint256"
        },
        {
          "name": "description",
          "type": "string"
        },
        {
          "name": "minExecutionDate",
          "type": "uint256"
        },
        {
          "name": "executed",
          "type": "bool"
        },
        {
          "name": "proposalPassed",
          "type": "bool"
        },
        {
          "name": "numberOfVotes",
          "type": "uint256"
        },
        {
          "name": "proposalHash",
          "type": "bytes32"
        }
      ],
      "payable": false,
      "stateMutability": "view",
      "type": "function"
    },
    {
      "constant": true,
      "inputs": [],
      "name": "sharesTokenAddress",
      "outputs": [
        {
          "name": "",
          "type": "address"
        }
      ],
      "payable": false,
      "stateMutability": "view",
      "type": "function"
    },
    {
      "constant": true,
      "inputs": [],
      "name": "numProposals",
      "outputs": [
        {
          "name": "",
          "type": "uint256"
        }
      ],
      "payable": false,
      "stateMutability": "view",
      "type": "function"
    },
    {
      "constant": true,
      "inputs": [],
      "name": "debatingPeriodInMinutes",
      "outputs": [
        {
          "name": "",
          "type": "uint256"
        }
      ],
      "payable": false,
      "stateMutability": "view",
      "type": "function"
    },
    {
      "constant": true,
      "inputs": [],
      "name": "minimumQuorum",
      "outputs": [
        {
          "name": "",
          "type": "uint256"
        }
      ],
      "payable": false,
      "stateMutability": "view",
      "type": "function"
    },
    {
      "constant": true,
      "inputs": [],
      "name": "owner",
      "outputs": [
        {
          "name": "",
          "type": "address"
        }
      ],
      "payable": false,
      "stateMutability": "view",
      "type": "function"
    },
    {
      "constant": false,
      "inputs": [
        {
          "name": "_from",
          "type": "address"
        },
        {
          "name": "_value",
          "type": "uint256"
        },
        {
          "name": "_token",
          "type": "address"
        },
        {
          "name": "_extraData",
          "type": "bytes"
        }
      ],
      "name": "receiveApproval",
      "outputs": [],
      "payable": false,
      "stateMutability": "nonpayable",
      "type": "function"
    },
    {
      "constant": false,
      "inputs": [
        {
          "name": "newOwner",
          "type": "address"
        }
      ],
      "name": "transferOwnership",
      "outputs": [],
      "payable": false,
      "stateMutability": "nonpayable",
      "type": "function"
    },
    {
      "inputs": [
        {
          "name": "sharesAddress",
          "type": "address"
        },
        {
          "name": "minimumSharesToPassAVote",
          "type": "uint256"
        },
        {
          "name": "minutesForDebate",
          "type": "uint256"
        }
      ],
      "payable": true,
      "stateMutability": "payable",
      "type": "constructor"
    },
    {
      "payable": true,
      "stateMutability": "payable",
      "type": "fallback"
    },
    {
      "anonymous": false,
      "inputs": [
        {
          "indexed": false,
          "name": "proposalID",
          "type": "uint256"
        },
        {
          "indexed": false,
          "name": "recipient",
          "type": "address"
        },
        {
          "indexed": false,
          "name": "amount",
          "type": "uint256"
        },
        {
          "indexed": false,
          "name": "description",
          "type": "string"
        }
      ],
      "name": "ProposalAdded",
      "type": "event"
    },
    {
      "anonymous": false,
      "inputs": [
        {
          "indexed": false,
          "name": "proposalID",
          "type": "uint256"
        },
        {
          "indexed": false,
          "name": "position",
          "type": "bool"
        },
        {
          "indexed": false,
          "name": "voter",
          "type": "address"
        }
      ],
      "name": "Voted",
      "type": "event"
    },
    {
      "anonymous": false,
      "inputs": [
        {
          "indexed": false,
          "name": "proposalID",
          "type": "uint256"
        },
        {
          "indexed": false,
          "name": "result",
          "type": "uint256"
        },
        {
          "indexed": false,
          "name": "quorum",
          "type": "uint256"
        },
        {
          "indexed": false,
          "name": "active",
          "type": "bool"
        }
      ],
      "name": "ProposalTallied",
      "type": "event"
    },
    {
      "anonymous": false,
      "inputs": [
        {
          "indexed": false,
          "name": "newMinimumQuorum",
          "type": "uint256"
        },
        {
          "indexed": false,
          "name": "newDebatingPeriodInMinutes",
          "type": "uint256"
        },
        {
          "indexed": false,
          "name": "newSharesTokenAddress",
          "type": "address"
        }
      ],
      "name": "ChangeOfRules",
      "type": "event"
    },
    {
      "anonymous": false,
      "inputs": [
        {
          "indexed": false,
          "name": "sender",
          "type": "address"
        },
        {
          "indexed": false,
          "name": "amount",
          "type": "uint256"
        }
      ],
      "name": "receivedEther",
      "type": "event"
    },
    {
      "anonymous": false,
      "inputs": [
        {
          "indexed": false,
          "name": "_from",
          "type": "address"
        },
        {
          "indexed": false,
          "name": "_value",
          "type": "uint256"
        },
        {
          "indexed": false,
          "name": "_token",
          "type": "address"
        },
        {
          "indexed": false,
          "name": "_extraData",
          "type": "bytes"
        }
      ],
      "name": "receivedTokens",
      "type": "event"
    },
    {
      "constant": false,
      "inputs": [
        {
          "name": "sharesAddress",
          "type": "address"
        },
        {
          "name": "minimumSharesToPassAVote",
          "type": "uint256"
        },
        {
          "name": "minutesForDebate",
          "type": "uint256"
        }
      ],
      "name": "changeVotingRules",
      "outputs": [],
      "payable": false,
      "stateMutability": "nonpayable",
      "type": "function"
    },
    {
      "constant": false,
      "inputs": [
        {
          "name": "beneficiary",
          "type": "address"
        },
        {
          "name": "weiAmount",
          "type": "uint256"
        },
        {
          "name": "jobDescription",
          "type": "string"
        },
        {
          "name": "transactionBytecode",
          "type": "bytes"
        }
      ],
      "name": "newProposal",
      "outputs": [
        {
          "name": "proposalID",
          "type": "uint256"
        }
      ],
      "payable": false,
      "stateMutability": "nonpayable",
      "type": "function"
    },
    {
      "constant": false,
      "inputs": [
        {
          "name": "beneficiary",
          "type": "address"
        },
        {
          "name": "etherAmount",
          "type": "uint256"
        },
        {
          "name": "jobDescription",
          "type": "string"
        },
        {
          "name": "transactionBytecode",
          "type": "bytes"
        }
      ],
      "name": "newProposalInEther",
      "outputs": [
        {
          "name": "proposalID",
          "type": "uint256"
        }
      ],
      "payable": false,
      "stateMutability": "nonpayable",
      "type": "function"
    },
    {
      "constant": true,
      "inputs": [
        {
          "name": "proposalNumber",
          "type": "uint256"
        },
        {
          "name": "beneficiary",
          "type": "address"
        },
        {
          "name": "weiAmount",
          "type": "uint256"
        },
        {
          "name": "transactionBytecode",
          "type": "bytes"
        }
      ],
      "name": "checkProposalCode",
      "outputs": [
        {
          "name": "codeChecksOut",
          "type": "bool"
        }
      ],
      "payable": false,
      "stateMutability": "view",
      "type": "function"
    },
    {
      "constant": false,
      "inputs": [
        {
          "name": "proposalNumber",
          "type": "uint256"
        },
        {
          "name": "supportsProposal",
          "type": "bool"
        }
      ],
      "name": "vote",
      "outputs": [
        {
          "name": "voteID",
          "type": "uint256"
        }
      ],
      "payable": false,
      "stateMutability": "nonpayable",
      "type": "function"
    },
    {
      "constant": false,
      "inputs": [
        {
          "name": "proposalNumber",
          "type": "uint256"
        },
        {
          "name": "transactionBytecode",
          "type": "bytes"
        }
      ],
      "name": "executeProposal",
      "outputs": [],
      "payable": false,
      "stateMutability": "nonpayable",
      "type": "function"
    }
  ],
  "bytecode": "0x6080604052604051606080611fd4833981018060405281019080805190602001909291908051906020019092919080519060200190929190505050336000806101000a81548173ffffffffffffffffffffffffffffffffffffffff021916908373ffffffffffffffffffffffffffffffffffffffff16021790555061009483838361009c640100000000026401000000009004565b5050506101f2565b6000809054906101000a900473ffffffffffffffffffffffffffffffffffffffff1673ffffffffffffffffffffffffffffffffffffffff163373ffffffffffffffffffffffffffffffffffffffff161415156100f757600080fd5b82600560006101000a81548173ffffffffffffffffffffffffffffffffffffffff021916908373ffffffffffffffffffffffffffffffffffffffff160217905550600082141561014657600191505b81600181905550806002819055507f68259880819f96f54b67d672fefc666565de06099c91b57a689a42073ba090c9600154600254600560009054906101000a900473ffffffffffffffffffffffffffffffffffffffff16604051808481526020018381526020018273ffffffffffffffffffffffffffffffffffffffff1673ffffffffffffffffffffffffffffffffffffffff168152602001935050505060405180910390a1505050565b611dd3806102016000396000f3006080604052600436106100d0576000357c0100000000000000000000000000000000000000000000000000000000900463ffffffff168063013cf08b1461013d578063237e94921461025057806327ebcf0e146102c3578063400e39491461031a578063520910471461034557806369bd34361461039c5780638160f0b5146103c75780638da5cb5b146103f25780638f4ffcb114610449578063b1050da5146104fc578063b9f256cd146105e9578063c9d27afe146106d6578063eceb294514610723578063f2fde38b146107d8575b7fa398b89ba344a0b23a0b9de53db298b2a1a868b396c1878b7e9dcbafecd49b133334604051808373ffffffffffffffffffffffffffffffffffffffff1673ffffffffffffffffffffffffffffffffffffffff1681526020018281526020019250505060405180910390a1005b34801561014957600080fd5b506101686004803603810190808035906020019092919050505061081b565b604051808973ffffffffffffffffffffffffffffffffffffffff1673ffffffffffffffffffffffffffffffffffffffff1681526020018881526020018060200187815260200186151515158152602001851515151581526020018481526020018360001916600019168152602001828103825288818151815260200191508051906020019080838360005b8381101561020e5780820151818401526020810190506101f3565b50505050905090810190601f16801561023b5780820380516001836020036101000a031916815260200191505b50995050505050505050505060405180910390f35b34801561025c57600080fd5b506102c160048036038101908080359060200190929190803590602001908201803590602001908080601f0160208091040260200160405190810160405280939291908181526020018383808284378201915050505050509192919290505050610944565b005b3480156102cf57600080fd5b506102d8610dbb565b604051808273ffffffffffffffffffffffffffffffffffffffff1673ffffffffffffffffffffffffffffffffffffffff16815260200191505060405180910390f35b34801561032657600080fd5b5061032f610de1565b6040518082815260200191505060405180910390f35b34801561035157600080fd5b5061039a600480360381019080803573ffffffffffffffffffffffffffffffffffffffff1690602001909291908035906020019092919080359060200190929190505050610de7565b005b3480156103a857600080fd5b506103b1610f3d565b6040518082815260200191505060405180910390f35b3480156103d357600080fd5b506103dc610f43565b6040518082815260200191505060405180910390f35b3480156103fe57600080fd5b50610407610f49565b604051808273ffffffffffffffffffffffffffffffffffffffff1673ffffffffffffffffffffffffffffffffffffffff16815260200191505060405180910390f35b34801561045557600080fd5b506104fa600480360381019080803573ffffffffffffffffffffffffffffffffffffffff16906020019092919080359060200190929190803573ffffffffffffffffffffffffffffffffffffffff169060200190929190803590602001908201803590602001908080601f0160208091040260200160405190810160405280939291908181526020018383808284378201915050505050509192919290505050610f6e565b005b34801561050857600080fd5b506105d3600480360381019080803573ffffffffffffffffffffffffffffffffffffffff16906020019092919080359060200190929190803590602001908201803590602001908080601f0160208091040260200160405190810160405280939291908181526020018383808284378201915050505050509192919290803590602001908201803590602001908080601f01602080910402602001604051908101604052809392919081815260200183838082843782019150505050505091929192905050506111a3565b6040518082815260200191505060405180910390f35b3480156105f557600080fd5b506106c0600480360381019080803573ffffffffffffffffffffffffffffffffffffffff16906020019092919080359060200190929190803590602001908201803590602001908080601f0160208091040260200160405190810160405280939291908181526020018383808284378201915050505050509192919290803590602001908201803590602001908080601f016020809104026020016040519081016040528093929190818152602001838380828437820191505050505050919291929050505061154a565b6040518082815260200191505060405180910390f35b3480156106e257600080fd5b5061070d60048036038101908080359060200190929190803515159060200190929190505050611671565b6040518082815260200191505060405180910390f35b34801561072f57600080fd5b506107be60048036038101908080359060200190929190803573ffffffffffffffffffffffffffffffffffffffff16906020019092919080359060200190929190803590602001908201803590602001908080601f01602080910402602001604051908101604052809392919081815260200183838082843782019150505050505091929192905050506119ac565b604051808215151515815260200191505060405180910390f35b3480156107e457600080fd5b50610819600480360381019080803573ffffffffffffffffffffffffffffffffffffffff169060200190929190505050611a95565b005b60038181548110151561082a57fe5b90600052602060002090600902016000915090508060000160009054906101000a900473ffffffffffffffffffffffffffffffffffffffff1690806001015490806002018054600181600116156101000203166002900480601f0160208091040260200160405190810160405280929190818152602001828054600181600116156101000203166002900480156109025780601f106108d757610100808354040283529160200191610902565b820191906000526020600020905b8154815290600101906020018083116108e557829003601f168201915b5050505050908060030154908060040160009054906101000a900460ff16908060040160019054906101000a900460ff16908060050154908060060154905088565b600080600080600080600060038981548110151561095e57fe5b9060005260206000209060090201965086600301544211801561099057508660040160009054906101000a900460ff16155b8015610a7c57508660000160009054906101000a900473ffffffffffffffffffffffffffffffffffffffff16876001015489604051808473ffffffffffffffffffffffffffffffffffffffff1673ffffffffffffffffffffffffffffffffffffffff166c0100000000000000000000000002815260140183815260200182805190602001908083835b602083101515610a3e5780518252602082019150602081019050602083039250610a19565b6001836020036101000a0380198251168184511680821785525050505050509050019350505050604051809103902060001916876006015460001916145b1515610a8757600080fd5b600095506000945060009350600092505b8660070180549050831015610c19578660070183815481101515610ab857fe5b906000526020600020019150600560009054906101000a900473ffffffffffffffffffffffffffffffffffffffff1673ffffffffffffffffffffffffffffffffffffffff166370a082318360000160019054906101000a900473ffffffffffffffffffffffffffffffffffffffff166040518263ffffffff167c0100000000000000000000000000000000000000000000000000000000028152600401808273ffffffffffffffffffffffffffffffffffffffff1673ffffffffffffffffffffffffffffffffffffffff168152602001915050602060405180830381600087803b158015610ba557600080fd5b505af1158015610bb9573d6000803e3d6000fd5b505050506040513d6020811015610bcf57600080fd5b8101908080519060200190929190505050905080860195508160000160009054906101000a900460ff1615610c08578085019450610c0e565b80840193505b826001019250610a98565b6001548610151515610c2a57600080fd5b83851115610d2c5760018760040160006101000a81548160ff0219169083151502179055508660000160009054906101000a900473ffffffffffffffffffffffffffffffffffffffff1673ffffffffffffffffffffffffffffffffffffffff1687600101548960405180828051906020019080838360005b83811015610cbd578082015181840152602081019050610ca2565b50505050905090810190601f168015610cea5780820380516001836020036101000a031916815260200191505b5091505060006040518083038185875af1925050501515610d0a57600080fd5b60018760040160016101000a81548160ff021916908315150217905550610d4a565b60008760040160016101000a81548160ff0219169083151502179055505b7f4bdc4ffee1d0e901f1c0270e9917651a82a81a109b5736b546a1b26668c55c0e89858703888a60040160019054906101000a900460ff16604051808581526020018481526020018381526020018215151515815260200194505050505060405180910390a1505050505050505050565b600560009054906101000a900473ffffffffffffffffffffffffffffffffffffffff1681565b60045481565b6000809054906101000a900473ffffffffffffffffffffffffffffffffffffffff1673ffffffffffffffffffffffffffffffffffffffff163373ffffffffffffffffffffffffffffffffffffffff16141515610e4257600080fd5b82600560006101000a81548173ffffffffffffffffffffffffffffffffffffffff021916908373ffffffffffffffffffffffffffffffffffffffff1602179055506000821415610e9157600191505b81600181905550806002819055507f68259880819f96f54b67d672fefc666565de06099c91b57a689a42073ba090c9600154600254600560009054906101000a900473ffffffffffffffffffffffffffffffffffffffff16604051808481526020018381526020018273ffffffffffffffffffffffffffffffffffffffff1673ffffffffffffffffffffffffffffffffffffffff168152602001935050505060405180910390a1505050565b60025481565b60015481565b6000809054906101000a900473ffffffffffffffffffffffffffffffffffffffff1681565b60008290508073ffffffffffffffffffffffffffffffffffffffff166323b872dd8630876040518463ffffffff167c0100000000000000000000000000000000000000000000000000000000028152600401808473ffffffffffffffffffffffffffffffffffffffff1673ffffffffffffffffffffffffffffffffffffffff1681526020018373ffffffffffffffffffffffffffffffffffffffff1673ffffffffffffffffffffffffffffffffffffffff1681526020018281526020019350505050602060405180830381600087803b15801561104a57600080fd5b505af115801561105e573d6000803e3d6000fd5b505050506040513d602081101561107457600080fd5b8101908080519060200190929190505050151561109057600080fd5b7f0eeb71b8926d7ed8f47a2cedf6b9b204e2001344c7fa20c696c9f06ea7c413c685858585604051808573ffffffffffffffffffffffffffffffffffffffff1673ffffffffffffffffffffffffffffffffffffffff1681526020018481526020018373ffffffffffffffffffffffffffffffffffffffff1673ffffffffffffffffffffffffffffffffffffffff16815260200180602001828103825283818151815260200191508051906020019080838360005b8381101561115f578082015181840152602081019050611144565b50505050905090810190601f16801561118c5780820380516001836020036101000a031916815260200191505b509550505050505060405180910390a15050505050565b6000806000600560009054906101000a900473ffffffffffffffffffffffffffffffffffffffff1673ffffffffffffffffffffffffffffffffffffffff166370a08231336040518263ffffffff167c0100000000000000000000000000000000000000000000000000000000028152600401808273ffffffffffffffffffffffffffffffffffffffff1673ffffffffffffffffffffffffffffffffffffffff168152602001915050602060405180830381600087803b15801561126557600080fd5b505af1158015611279573d6000803e3d6000fd5b505050506040513d602081101561128f57600080fd5b81019080805190602001909291905050501115156112ac57600080fd5b600380548091906001016112c09190611b33565b91506003828154811015156112d157fe5b90600052602060002090600902019050858160000160006101000a81548173ffffffffffffffffffffffffffffffffffffffff021916908373ffffffffffffffffffffffffffffffffffffffff16021790555084816001018190555083816002019080519060200190611345929190611b65565b50858584604051808473ffffffffffffffffffffffffffffffffffffffff1673ffffffffffffffffffffffffffffffffffffffff166c0100000000000000000000000002815260140183815260200182805190602001908083835b6020831015156113c557805182526020820191506020810190506020830392506113a0565b6001836020036101000a03801982511681845116808217855250505050505090500193505050506040518091039020816006018160001916905550603c600254024201816003018190555060008160040160006101000a81548160ff02191690831515021790555060008160040160016101000a81548160ff021916908315150217905550600081600501819055507f646fec02522b41e7125cfc859a64fd4f4cefd5dc3b6237ca0abe251ded1fa88182878787604051808581526020018473ffffffffffffffffffffffffffffffffffffffff1673ffffffffffffffffffffffffffffffffffffffff16815260200183815260200180602001828103825283818151815260200191508051906020019080838360005b838110156114f75780820151818401526020810190506114dc565b50505050905090810190601f1680156115245780820380516001836020036101000a031916815260200191505b509550505050505060405180910390a16001820160048190555081915050949350505050565b600080600560009054906101000a900473ffffffffffffffffffffffffffffffffffffffff1673ffffffffffffffffffffffffffffffffffffffff166370a08231336040518263ffffffff167c0100000000000000000000000000000000000000000000000000000000028152600401808273ffffffffffffffffffffffffffffffffffffffff1673ffffffffffffffffffffffffffffffffffffffff168152602001915050602060405180830381600087803b15801561160a57600080fd5b505af115801561161e573d6000803e3d6000fd5b505050506040513d602081101561163457600080fd5b810190808051906020019092919050505011151561165157600080fd5b61166785670de0b6b3a7640000860285856111a3565b9050949350505050565b6000806000600560009054906101000a900473ffffffffffffffffffffffffffffffffffffffff1673ffffffffffffffffffffffffffffffffffffffff166370a08231336040518263ffffffff167c0100000000000000000000000000000000000000000000000000000000028152600401808273ffffffffffffffffffffffffffffffffffffffff1673ffffffffffffffffffffffffffffffffffffffff168152602001915050602060405180830381600087803b15801561173357600080fd5b505af1158015611747573d6000803e3d6000fd5b505050506040513d602081101561175d57600080fd5b810190808051906020019092919050505011151561177a57600080fd5b60038481548110151561178957fe5b90600052602060002090600902019050600115158160080160003373ffffffffffffffffffffffffffffffffffffffff1673ffffffffffffffffffffffffffffffffffffffff16815260200190815260200160002060009054906101000a900460ff161515141515156117fb57600080fd5b8060070180548091906001016118119190611be5565b9150604080519081016040528084151581526020013373ffffffffffffffffffffffffffffffffffffffff16815250816007018381548110151561185157fe5b9060005260206000200160008201518160000160006101000a81548160ff02191690831515021790555060208201518160000160016101000a81548173ffffffffffffffffffffffffffffffffffffffff021916908373ffffffffffffffffffffffffffffffffffffffff16021790555090505060018160080160003373ffffffffffffffffffffffffffffffffffffffff1673ffffffffffffffffffffffffffffffffffffffff16815260200190815260200160002060006101000a81548160ff0219169083151502179055506001820181600501819055507f86abfce99b7dd908bec0169288797f85049ec73cbe046ed9de818fab3a497ae084843360405180848152602001831515151581526020018273ffffffffffffffffffffffffffffffffffffffff1673ffffffffffffffffffffffffffffffffffffffff168152602001935050505060405180910390a18191505092915050565b6000806003868154811015156119be57fe5b90600052602060002090600902019050848484604051808473ffffffffffffffffffffffffffffffffffffffff1673ffffffffffffffffffffffffffffffffffffffff166c0100000000000000000000000002815260140183815260200182805190602001908083835b602083101515611a4d5780518252602082019150602081019050602083039250611a28565b6001836020036101000a038019825116818451168082178552505050505050905001935050505060405180910390206000191681600601546000191614915050949350505050565b6000809054906101000a900473ffffffffffffffffffffffffffffffffffffffff1673ffffffffffffffffffffffffffffffffffffffff163373ffffffffffffffffffffffffffffffffffffffff16141515611af057600080fd5b806000806101000a81548173ffffffffffffffffffffffffffffffffffffffff021916908373ffffffffffffffffffffffffffffffffffffffff16021790555050565b815481835581811115611b6057600902816009028360005260206000209182019101611b5f9190611c11565b5b505050565b828054600181600116156101000203166002900490600052602060002090601f016020900481019282601f10611ba657805160ff1916838001178555611bd4565b82800160010185558215611bd4579182015b82811115611bd3578251825591602001919060010190611bb8565b5b509050611be19190611cbf565b5090565b815481835581811115611c0c57818360005260206000209182019101611c0b9190611ce4565b5b505050565b611cbc91905b80821115611cb857600080820160006101000a81549073ffffffffffffffffffffffffffffffffffffffff02191690556001820160009055600282016000611c5f9190611d3e565b60038201600090556004820160006101000a81549060ff02191690556004820160016101000a81549060ff021916905560058201600090556006820160009055600782016000611caf9190611d86565b50600901611c17565b5090565b90565b611ce191905b80821115611cdd576000816000905550600101611cc5565b5090565b90565b611d3b91905b80821115611d3757600080820160006101000a81549060ff02191690556000820160016101000a81549073ffffffffffffffffffffffffffffffffffffffff021916905550600101611cea565b5090565b90565b50805460018160011615610100020316600290046000825580601f10611d645750611d83565b601f016020900490600052602060002090810190611d829190611cbf565b5b50565b5080546000825590600052602060002090810190611da49190611ce4565b505600a165627a7a7230582068510fff521ea61cd198f2e90fa164c96ec61b1153743d3c9933a0925f55ff430029",
  "source": "pragma solidity ^0.4.16;\r\n\r\ncontract owned {\r\n    address public owner;\r\n\r\n    function owned() public {\r\n        owner = msg.sender;\r\n    }\r\n\r\n    modifier onlyOwner {\r\n        require(msg.sender == owner);\r\n        _;\r\n    }\r\n\r\n    function transferOwnership(address newOwner) onlyOwner public {\r\n        owner = newOwner;\r\n    }\r\n}\r\n\r\ncontract tokenRecipient {\r\n    event receivedEther(address sender, uint amount);\r\n    event receivedTokens(address _from, uint256 _value, address _token, bytes _extraData);\r\n\r\n    function receiveApproval(address _from, uint256 _value, address _token, bytes _extraData) public {\r\n        Token t = Token(_token);\r\n        require(t.transferFrom(_from, this, _value));\r\n        receivedTokens(_from, _value, _token, _extraData);\r\n    }\r\n\r\n    function () payable public {\r\n        receivedEther(msg.sender, msg.value);\r\n    }\r\n}\r\n\r\ncontract Token {\r\n    mapping (address => uint256) public balanceOf;\r\n    function transferFrom(address _from, address _to, uint256 _value) public returns (bool success);\r\n}\r\n\r\n/**\r\n * The shareholder association contract itself\r\n */\r\ncontract StokVel is owned, tokenRecipient {\r\n\r\n    uint public minimumQuorum;\r\n    uint public debatingPeriodInMinutes;\r\n    Proposal[] public proposals;\r\n    uint public numProposals;\r\n    Token public sharesTokenAddress;\r\n\r\n    event ProposalAdded(uint proposalID, address recipient, uint amount, string description);\r\n    event Voted(uint proposalID, bool position, address voter);\r\n    event ProposalTallied(uint proposalID, uint result, uint quorum, bool active);\r\n    event ChangeOfRules(uint newMinimumQuorum, uint newDebatingPeriodInMinutes, address newSharesTokenAddress);\r\n\r\n    struct Proposal {\r\n        address recipient;\r\n        uint amount;\r\n        string description;\r\n        uint minExecutionDate;\r\n        bool executed;\r\n        bool proposalPassed;\r\n        uint numberOfVotes;\r\n        bytes32 proposalHash;\r\n        Vote[] votes;\r\n        mapping (address => bool) voted;\r\n    }\r\n\r\n    struct Vote {\r\n        bool inSupport;\r\n        address voter;\r\n    }\r\n\r\n    // Modifier that allows only shareholders to vote and create new proposals\r\n    modifier onlyShareholders {\r\n        require(sharesTokenAddress.balanceOf(msg.sender) > 0);\r\n        _;\r\n    }\r\n\r\n    /**\r\n     * Constructor function\r\n     *\r\n     * First time setup\r\n     */\r\n    function StokVel(Token sharesAddress, uint minimumSharesToPassAVote, uint minutesForDebate) payable public {\r\n        changeVotingRules(sharesAddress, minimumSharesToPassAVote, minutesForDebate);\r\n    }\r\n\r\n    /**\r\n     * Change voting rules\r\n     *\r\n     * Make so that proposals need to be discussed for at least `minutesForDebate/60` hours\r\n     * and all voters combined must own more than `minimumSharesToPassAVote` shares of token `sharesAddress` to be executed\r\n     *\r\n     * @param sharesAddress token address\r\n     * @param minimumSharesToPassAVote proposal can vote only if the sum of shares held by all voters exceed this number\r\n     * @param minutesForDebate the minimum amount of delay between when a proposal is made and when it can be executed\r\n     */\r\n    function changeVotingRules(Token sharesAddress, uint minimumSharesToPassAVote, uint minutesForDebate) onlyOwner public {\r\n        sharesTokenAddress = Token(sharesAddress);\r\n        if (minimumSharesToPassAVote == 0 ) minimumSharesToPassAVote = 1;\r\n        minimumQuorum = minimumSharesToPassAVote;\r\n        debatingPeriodInMinutes = minutesForDebate;\r\n        ChangeOfRules(minimumQuorum, debatingPeriodInMinutes, sharesTokenAddress);\r\n    }\r\n\r\n    /**\r\n     * Add Proposal\r\n     *\r\n     * Propose to send `weiAmount / 1e18` ether to `beneficiary` for `jobDescription`. `transactionBytecode ? Contains : Does not contain` code.\r\n     *\r\n     * @param beneficiary who to send the ether to\r\n     * @param weiAmount amount of ether to send, in wei\r\n     * @param jobDescription Description of job\r\n     * @param transactionBytecode bytecode of transaction\r\n     */\r\n    function newProposal(\r\n        address beneficiary,\r\n        uint weiAmount,\r\n        string jobDescription,\r\n        bytes transactionBytecode\r\n    )\r\n        onlyShareholders public\r\n        returns (uint proposalID)\r\n    {\r\n        proposalID = proposals.length++;\r\n        Proposal storage p = proposals[proposalID];\r\n        p.recipient = beneficiary;\r\n        p.amount = weiAmount;\r\n        p.description = jobDescription;\r\n        p.proposalHash = keccak256(beneficiary, weiAmount, transactionBytecode);\r\n        p.minExecutionDate = now + debatingPeriodInMinutes * 1 minutes;\r\n        p.executed = false;\r\n        p.proposalPassed = false;\r\n        p.numberOfVotes = 0;\r\n        ProposalAdded(proposalID, beneficiary, weiAmount, jobDescription);\r\n        numProposals = proposalID+1;\r\n\r\n        return proposalID;\r\n    }\r\n\r\n    /**\r\n     * Add proposal in Ether\r\n     *\r\n     * Propose to send `etherAmount` ether to `beneficiary` for `jobDescription`. `transactionBytecode ? Contains : Does not contain` code.\r\n     * This is a convenience function to use if the amount to be given is in round number of ether units.\r\n     *\r\n     * @param beneficiary who to send the ether to\r\n     * @param etherAmount amount of ether to send\r\n     * @param jobDescription Description of job\r\n     * @param transactionBytecode bytecode of transaction\r\n     */\r\n    function newProposalInEther(\r\n        address beneficiary,\r\n        uint etherAmount,\r\n        string jobDescription,\r\n        bytes transactionBytecode\r\n    )\r\n        onlyShareholders public\r\n        returns (uint proposalID)\r\n    {\r\n        return newProposal(beneficiary, etherAmount * 1 ether, jobDescription, transactionBytecode);\r\n    }\r\n\r\n    /**\r\n     * Check if a proposal code matches\r\n     *\r\n     * @param proposalNumber ID number of the proposal to query\r\n     * @param beneficiary who to send the ether to\r\n     * @param weiAmount amount of ether to send\r\n     * @param transactionBytecode bytecode of transaction\r\n     */\r\n    function checkProposalCode(\r\n        uint proposalNumber,\r\n        address beneficiary,\r\n        uint weiAmount,\r\n        bytes transactionBytecode\r\n    )\r\n        constant public\r\n        returns (bool codeChecksOut)\r\n    {\r\n        Proposal storage p = proposals[proposalNumber];\r\n        return p.proposalHash == keccak256(beneficiary, weiAmount, transactionBytecode);\r\n    }\r\n\r\n    /**\r\n     * Log a vote for a proposal\r\n     *\r\n     * Vote `supportsProposal? in support of : against` proposal #`proposalNumber`\r\n     *\r\n     * @param proposalNumber number of proposal\r\n     * @param supportsProposal either in favor or against it\r\n     */\r\n    function vote(\r\n        uint proposalNumber,\r\n        bool supportsProposal\r\n    )\r\n        onlyShareholders public\r\n        returns (uint voteID)\r\n    {\r\n        Proposal storage p = proposals[proposalNumber];\r\n        require(p.voted[msg.sender] != true);\r\n\r\n        voteID = p.votes.length++;\r\n        p.votes[voteID] = Vote({inSupport: supportsProposal, voter: msg.sender});\r\n        p.voted[msg.sender] = true;\r\n        p.numberOfVotes = voteID +1;\r\n        Voted(proposalNumber,  supportsProposal, msg.sender);\r\n        return voteID;\r\n    }\r\n\r\n    /**\r\n     * Finish vote\r\n     *\r\n     * Count the votes proposal #`proposalNumber` and execute it if approved\r\n     *\r\n     * @param proposalNumber proposal number\r\n     * @param transactionBytecode optional: if the transaction contained a bytecode, you need to send it\r\n     */\r\n    function executeProposal(uint proposalNumber, bytes transactionBytecode) public {\r\n        Proposal storage p = proposals[proposalNumber];\r\n\r\n        require(now > p.minExecutionDate                                            \r\n            && !p.executed                                                          \r\n            && p.proposalHash == keccak256(p.recipient, p.amount, transactionBytecode)); \r\n\r\n\r\n        // ...then tally the results\r\n        uint quorum = 0;\r\n        uint yea = 0;\r\n        uint nay = 0;\r\n\r\n        for (uint i = 0; i <  p.votes.length; ++i) {\r\n            Vote storage v = p.votes[i];\r\n            uint voteWeight = sharesTokenAddress.balanceOf(v.voter);\r\n            quorum += voteWeight;\r\n            if (v.inSupport) {\r\n                yea += voteWeight;\r\n            } else {\r\n                nay += voteWeight;\r\n            }\r\n        }\r\n\r\n        require(quorum >= minimumQuorum); // Check if a minimum quorum has been reached\r\n\r\n        if (yea > nay ) {\r\n            // Proposal passed; execute the transaction\r\n\r\n            p.executed = true;\r\n            require(p.recipient.call.value(p.amount)(transactionBytecode));\r\n\r\n            p.proposalPassed = true;\r\n        } else {\r\n            // Proposal failed\r\n            p.proposalPassed = false;\r\n        }\r\n\r\n        // Fire Events\r\n        ProposalTallied(proposalNumber, yea - nay, quorum, p.proposalPassed);\r\n    }\r\n}\r\n",
  "sourcePath": "D:\\Projects\\stokcoin\\contracts\\StokVel.sol",
  "compiler": {
    "name": "solc",
    "version": "0.4.24+commit.e67f0147.Emscripten.clang"
  },
  "schemaVersion": "2.0.1",
  "updatedAt": "2018-09-28T14:31:24.289Z"
}