{
  "contractName": "tokenRecipient",
  "abi": [
    {
      "payable": true,
      "stateMutability": "payable",
      "type": "fallback"
    },
    {
      "anonymous": false,
      "inputs": [
        {
          "indexed": false,
          "name": "sender",
          "type": "address"
        },
        {
          "indexed": false,
          "name": "amount",
          "type": "uint256"
        }
      ],
      "name": "receivedEther",
      "type": "event"
    },
    {
      "anonymous": false,
      "inputs": [
        {
          "indexed": false,
          "name": "_from",
          "type": "address"
        },
        {
          "indexed": false,
          "name": "_value",
          "type": "uint256"
        },
        {
          "indexed": false,
          "name": "_token",
          "type": "address"
        },
        {
          "indexed": false,
          "name": "_extraData",
          "type": "bytes"
        }
      ],
      "name": "receivedTokens",
      "type": "event"
    },
    {
      "constant": false,
      "inputs": [
        {
          "name": "_from",
          "type": "address"
        },
        {
          "name": "_value",
          "type": "uint256"
        },
        {
          "name": "_token",
          "type": "address"
        },
        {
          "name": "_extraData",
          "type": "bytes"
        }
      ],
      "name": "receiveApproval",
      "outputs": [],
      "payable": false,
      "stateMutability": "nonpayable",
      "type": "function"
    }
  ],
  "bytecode": "0x608060405234801561001057600080fd5b506103c2806100206000396000f300608060405260043610610041576000357c0100000000000000000000000000000000000000000000000000000000900463ffffffff1680638f4ffcb1146100ae575b7fa398b89ba344a0b23a0b9de53db298b2a1a868b396c1878b7e9dcbafecd49b133334604051808373ffffffffffffffffffffffffffffffffffffffff1673ffffffffffffffffffffffffffffffffffffffff1681526020018281526020019250505060405180910390a1005b3480156100ba57600080fd5b5061015f600480360381019080803573ffffffffffffffffffffffffffffffffffffffff16906020019092919080359060200190929190803573ffffffffffffffffffffffffffffffffffffffff169060200190929190803590602001908201803590602001908080601f0160208091040260200160405190810160405280939291908181526020018383808284378201915050505050509192919290505050610161565b005b60008290508073ffffffffffffffffffffffffffffffffffffffff166323b872dd8630876040518463ffffffff167c0100000000000000000000000000000000000000000000000000000000028152600401808473ffffffffffffffffffffffffffffffffffffffff1673ffffffffffffffffffffffffffffffffffffffff1681526020018373ffffffffffffffffffffffffffffffffffffffff1673ffffffffffffffffffffffffffffffffffffffff1681526020018281526020019350505050602060405180830381600087803b15801561023d57600080fd5b505af1158015610251573d6000803e3d6000fd5b505050506040513d602081101561026757600080fd5b8101908080519060200190929190505050151561028357600080fd5b7f0eeb71b8926d7ed8f47a2cedf6b9b204e2001344c7fa20c696c9f06ea7c413c685858585604051808573ffffffffffffffffffffffffffffffffffffffff1673ffffffffffffffffffffffffffffffffffffffff1681526020018481526020018373ffffffffffffffffffffffffffffffffffffffff1673ffffffffffffffffffffffffffffffffffffffff16815260200180602001828103825283818151815260200191508051906020019080838360005b83811015610352578082015181840152602081019050610337565b50505050905090810190601f16801561037f5780820380516001836020036101000a031916815260200191505b509550505050505060405180910390a150505050505600a165627a7a72305820dbe1663919bd627fb2639219e3bd1401bfd011727b299bef4c4b7ee150553a9a0029",
  "source": "pragma solidity ^0.4.16;\r\n\r\ncontract owned {\r\n    address public owner;\r\n\r\n    function owned() public {\r\n        owner = msg.sender;\r\n    }\r\n\r\n    modifier onlyOwner {\r\n        require(msg.sender == owner);\r\n        _;\r\n    }\r\n\r\n    function transferOwnership(address newOwner) onlyOwner public {\r\n        owner = newOwner;\r\n    }\r\n}\r\n\r\ncontract tokenRecipient {\r\n    event receivedEther(address sender, uint amount);\r\n    event receivedTokens(address _from, uint256 _value, address _token, bytes _extraData);\r\n\r\n    function receiveApproval(address _from, uint256 _value, address _token, bytes _extraData) public {\r\n        Token t = Token(_token);\r\n        require(t.transferFrom(_from, this, _value));\r\n        receivedTokens(_from, _value, _token, _extraData);\r\n    }\r\n\r\n    function () payable public {\r\n        receivedEther(msg.sender, msg.value);\r\n    }\r\n}\r\n\r\ncontract Token {\r\n    mapping (address => uint256) public balanceOf;\r\n    function transferFrom(address _from, address _to, uint256 _value) public returns (bool success);\r\n}\r\n\r\n/**\r\n * The shareholder association contract itself\r\n */\r\ncontract StokVel is owned, tokenRecipient {\r\n\r\n    uint public minimumQuorum;\r\n    uint public debatingPeriodInMinutes;\r\n    Proposal[] public proposals;\r\n    uint public numProposals;\r\n    Token public sharesTokenAddress;\r\n\r\n    event ProposalAdded(uint proposalID, address recipient, uint amount, string description);\r\n    event Voted(uint proposalID, bool position, address voter);\r\n    event ProposalTallied(uint proposalID, uint result, uint quorum, bool active);\r\n    event ChangeOfRules(uint newMinimumQuorum, uint newDebatingPeriodInMinutes, address newSharesTokenAddress);\r\n\r\n    struct Proposal {\r\n        address recipient;\r\n        uint amount;\r\n        string description;\r\n        uint minExecutionDate;\r\n        bool executed;\r\n        bool proposalPassed;\r\n        uint numberOfVotes;\r\n        bytes32 proposalHash;\r\n        Vote[] votes;\r\n        mapping (address => bool) voted;\r\n    }\r\n\r\n    struct Vote {\r\n        bool inSupport;\r\n        address voter;\r\n    }\r\n\r\n    // Modifier that allows only shareholders to vote and create new proposals\r\n    modifier onlyShareholders {\r\n        require(sharesTokenAddress.balanceOf(msg.sender) > 0);\r\n        _;\r\n    }\r\n\r\n    /**\r\n     * Constructor function\r\n     *\r\n     * First time setup\r\n     */\r\n    function StokVel(Token sharesAddress, uint minimumSharesToPassAVote, uint minutesForDebate) payable public {\r\n        changeVotingRules(sharesAddress, minimumSharesToPassAVote, minutesForDebate);\r\n    }\r\n\r\n    /**\r\n     * Change voting rules\r\n     *\r\n     * Make so that proposals need to be discussed for at least `minutesForDebate/60` hours\r\n     * and all voters combined must own more than `minimumSharesToPassAVote` shares of token `sharesAddress` to be executed\r\n     *\r\n     * @param sharesAddress token address\r\n     * @param minimumSharesToPassAVote proposal can vote only if the sum of shares held by all voters exceed this number\r\n     * @param minutesForDebate the minimum amount of delay between when a proposal is made and when it can be executed\r\n     */\r\n    function changeVotingRules(Token sharesAddress, uint minimumSharesToPassAVote, uint minutesForDebate) onlyOwner public {\r\n        sharesTokenAddress = Token(sharesAddress);\r\n        if (minimumSharesToPassAVote == 0 ) minimumSharesToPassAVote = 1;\r\n        minimumQuorum = minimumSharesToPassAVote;\r\n        debatingPeriodInMinutes = minutesForDebate;\r\n        ChangeOfRules(minimumQuorum, debatingPeriodInMinutes, sharesTokenAddress);\r\n    }\r\n\r\n    /**\r\n     * Add Proposal\r\n     *\r\n     * Propose to send `weiAmount / 1e18` ether to `beneficiary` for `jobDescription`. `transactionBytecode ? Contains : Does not contain` code.\r\n     *\r\n     * @param beneficiary who to send the ether to\r\n     * @param weiAmount amount of ether to send, in wei\r\n     * @param jobDescription Description of job\r\n     * @param transactionBytecode bytecode of transaction\r\n     */\r\n    function newProposal(\r\n        address beneficiary,\r\n        uint weiAmount,\r\n        string jobDescription,\r\n        bytes transactionBytecode\r\n    )\r\n        onlyShareholders public\r\n        returns (uint proposalID)\r\n    {\r\n        proposalID = proposals.length++;\r\n        Proposal storage p = proposals[proposalID];\r\n        p.recipient = beneficiary;\r\n        p.amount = weiAmount;\r\n        p.description = jobDescription;\r\n        p.proposalHash = keccak256(beneficiary, weiAmount, transactionBytecode);\r\n        p.minExecutionDate = now + debatingPeriodInMinutes * 1 minutes;\r\n        p.executed = false;\r\n        p.proposalPassed = false;\r\n        p.numberOfVotes = 0;\r\n        ProposalAdded(proposalID, beneficiary, weiAmount, jobDescription);\r\n        numProposals = proposalID+1;\r\n\r\n        return proposalID;\r\n    }\r\n\r\n    /**\r\n     * Add proposal in Ether\r\n     *\r\n     * Propose to send `etherAmount` ether to `beneficiary` for `jobDescription`. `transactionBytecode ? Contains : Does not contain` code.\r\n     * This is a convenience function to use if the amount to be given is in round number of ether units.\r\n     *\r\n     * @param beneficiary who to send the ether to\r\n     * @param etherAmount amount of ether to send\r\n     * @param jobDescription Description of job\r\n     * @param transactionBytecode bytecode of transaction\r\n     */\r\n    function newProposalInEther(\r\n        address beneficiary,\r\n        uint etherAmount,\r\n        string jobDescription,\r\n        bytes transactionBytecode\r\n    )\r\n        onlyShareholders public\r\n        returns (uint proposalID)\r\n    {\r\n        return newProposal(beneficiary, etherAmount * 1 ether, jobDescription, transactionBytecode);\r\n    }\r\n\r\n    /**\r\n     * Check if a proposal code matches\r\n     *\r\n     * @param proposalNumber ID number of the proposal to query\r\n     * @param beneficiary who to send the ether to\r\n     * @param weiAmount amount of ether to send\r\n     * @param transactionBytecode bytecode of transaction\r\n     */\r\n    function checkProposalCode(\r\n        uint proposalNumber,\r\n        address beneficiary,\r\n        uint weiAmount,\r\n        bytes transactionBytecode\r\n    )\r\n        constant public\r\n        returns (bool codeChecksOut)\r\n    {\r\n        Proposal storage p = proposals[proposalNumber];\r\n        return p.proposalHash == keccak256(beneficiary, weiAmount, transactionBytecode);\r\n    }\r\n\r\n    /**\r\n     * Log a vote for a proposal\r\n     *\r\n     * Vote `supportsProposal? in support of : against` proposal #`proposalNumber`\r\n     *\r\n     * @param proposalNumber number of proposal\r\n     * @param supportsProposal either in favor or against it\r\n     */\r\n    function vote(\r\n        uint proposalNumber,\r\n        bool supportsProposal\r\n    )\r\n        onlyShareholders public\r\n        returns (uint voteID)\r\n    {\r\n        Proposal storage p = proposals[proposalNumber];\r\n        require(p.voted[msg.sender] != true);\r\n\r\n        voteID = p.votes.length++;\r\n        p.votes[voteID] = Vote({inSupport: supportsProposal, voter: msg.sender});\r\n        p.voted[msg.sender] = true;\r\n        p.numberOfVotes = voteID +1;\r\n        Voted(proposalNumber,  supportsProposal, msg.sender);\r\n        return voteID;\r\n    }\r\n\r\n    /**\r\n     * Finish vote\r\n     *\r\n     * Count the votes proposal #`proposalNumber` and execute it if approved\r\n     *\r\n     * @param proposalNumber proposal number\r\n     * @param transactionBytecode optional: if the transaction contained a bytecode, you need to send it\r\n     */\r\n    function executeProposal(uint proposalNumber, bytes transactionBytecode) public {\r\n        Proposal storage p = proposals[proposalNumber];\r\n\r\n        require(now > p.minExecutionDate                                            \r\n            && !p.executed                                                          \r\n            && p.proposalHash == keccak256(p.recipient, p.amount, transactionBytecode)); \r\n\r\n\r\n        // ...then tally the results\r\n        uint quorum = 0;\r\n        uint yea = 0;\r\n        uint nay = 0;\r\n\r\n        for (uint i = 0; i <  p.votes.length; ++i) {\r\n            Vote storage v = p.votes[i];\r\n            uint voteWeight = sharesTokenAddress.balanceOf(v.voter);\r\n            quorum += voteWeight;\r\n            if (v.inSupport) {\r\n                yea += voteWeight;\r\n            } else {\r\n                nay += voteWeight;\r\n            }\r\n        }\r\n\r\n        require(quorum >= minimumQuorum); // Check if a minimum quorum has been reached\r\n\r\n        if (yea > nay ) {\r\n            // Proposal passed; execute the transaction\r\n\r\n            p.executed = true;\r\n            require(p.recipient.call.value(p.amount)(transactionBytecode));\r\n\r\n            p.proposalPassed = true;\r\n        } else {\r\n            // Proposal failed\r\n            p.proposalPassed = false;\r\n        }\r\n\r\n        // Fire Events\r\n        ProposalTallied(proposalNumber, yea - nay, quorum, p.proposalPassed);\r\n    }\r\n}\r\n",
  "sourcePath": "D:\\Projects\\stokcoin\\contracts\\StokVel.sol",
  "compiler": {
    "name": "solc",
    "version": "0.4.24+commit.e67f0147.Emscripten.clang"
  },
  "schemaVersion": "2.0.1",
  "updatedAt": "2018-09-28T14:31:24.310Z"
}