{
  "contractName": "tokenRecipient",
  "abi": [
    {
      "payable": true,
      "stateMutability": "payable",
      "type": "fallback"
    },
    {
      "anonymous": false,
      "inputs": [
        {
          "indexed": false,
          "name": "sender",
          "type": "address"
        },
        {
          "indexed": false,
          "name": "amount",
          "type": "uint256"
        }
      ],
      "name": "receivedEther",
      "type": "event"
    },
    {
      "anonymous": false,
      "inputs": [
        {
          "indexed": false,
          "name": "_from",
          "type": "address"
        },
        {
          "indexed": false,
          "name": "_value",
          "type": "uint256"
        },
        {
          "indexed": false,
          "name": "_token",
          "type": "address"
        },
        {
          "indexed": false,
          "name": "_extraData",
          "type": "bytes"
        }
      ],
      "name": "receivedTokens",
      "type": "event"
    },
    {
      "constant": false,
      "inputs": [
        {
          "name": "_from",
          "type": "address"
        },
        {
          "name": "_value",
          "type": "uint256"
        },
        {
          "name": "_token",
          "type": "address"
        },
        {
          "name": "_extraData",
          "type": "bytes"
        }
      ],
      "name": "receiveApproval",
      "outputs": [],
      "payable": false,
      "stateMutability": "nonpayable",
      "type": "function"
    }
  ],
  "bytecode": "0x608060405234801561001057600080fd5b506103c2806100206000396000f300608060405260043610610041576000357c0100000000000000000000000000000000000000000000000000000000900463ffffffff1680638f4ffcb1146100ae575b7fa398b89ba344a0b23a0b9de53db298b2a1a868b396c1878b7e9dcbafecd49b133334604051808373ffffffffffffffffffffffffffffffffffffffff1673ffffffffffffffffffffffffffffffffffffffff1681526020018281526020019250505060405180910390a1005b3480156100ba57600080fd5b5061015f600480360381019080803573ffffffffffffffffffffffffffffffffffffffff16906020019092919080359060200190929190803573ffffffffffffffffffffffffffffffffffffffff169060200190929190803590602001908201803590602001908080601f0160208091040260200160405190810160405280939291908181526020018383808284378201915050505050509192919290505050610161565b005b60008290508073ffffffffffffffffffffffffffffffffffffffff166323b872dd8630876040518463ffffffff167c0100000000000000000000000000000000000000000000000000000000028152600401808473ffffffffffffffffffffffffffffffffffffffff1673ffffffffffffffffffffffffffffffffffffffff1681526020018373ffffffffffffffffffffffffffffffffffffffff1673ffffffffffffffffffffffffffffffffffffffff1681526020018281526020019350505050602060405180830381600087803b15801561023d57600080fd5b505af1158015610251573d6000803e3d6000fd5b505050506040513d602081101561026757600080fd5b8101908080519060200190929190505050151561028357600080fd5b7f0eeb71b8926d7ed8f47a2cedf6b9b204e2001344c7fa20c696c9f06ea7c413c685858585604051808573ffffffffffffffffffffffffffffffffffffffff1673ffffffffffffffffffffffffffffffffffffffff1681526020018481526020018373ffffffffffffffffffffffffffffffffffffffff1673ffffffffffffffffffffffffffffffffffffffff16815260200180602001828103825283818151815260200191508051906020019080838360005b83811015610352578082015181840152602081019050610337565b50505050905090810190601f16801561037f5780820380516001836020036101000a031916815260200191505b509550505050505060405180910390a150505050505600a165627a7a72305820fb816484258cf4f2a4eb9c02837dd18ce627281c02f9ae50e2c7ed961806526d0029",
  "source": "pragma solidity ^0.4.16;\r\n\r\ncontract owned {\r\n    address public owner;\r\n\r\n    function owned() {\r\n        owner = msg.sender;\r\n    }\r\n\r\n    modifier onlyOwner {\r\n        require(msg.sender == owner);\r\n        _;\r\n    }\r\n\r\n    function transferOwnership(address newOwner) onlyOwner {\r\n        owner = newOwner;\r\n    }\r\n}\r\n\r\ncontract tokenRecipient {\r\n    event receivedEther(address sender, uint amount);\r\n    event receivedTokens(address _from, uint256 _value, address _token, bytes _extraData);\r\n\r\n    function receiveApproval(address _from, uint256 _value, address _token, bytes _extraData){\r\n        Token t = Token(_token);\r\n        require(t.transferFrom(_from, this, _value));\r\n        receivedTokens(_from, _value, _token, _extraData);\r\n    }\r\n\r\n    function () payable {\r\n        receivedEther(msg.sender, msg.value);\r\n    }\r\n}\r\n\r\ninterface Token {\r\n    function transferFrom(address _from, address _to, uint256 _value) returns (bool success);\r\n}\r\n\r\ncontract StokVel is owned, tokenRecipient {\r\n\r\n    Proposal[] public proposals;\r\n    uint public numProposals;\r\n    mapping (address => uint) public memberId;\r\n    Member[] public members;\r\n    uint minimumTime = 10;\r\n\r\n    event ProposalAdded(uint proposalID, address recipient, uint amount, string description);\r\n    event Voted(uint proposalID, bool position, address voter, string justification);\r\n    event ProposalExecuted(uint proposalID, int result, uint deadline);\r\n    event MembershipChanged(address member, bool isMember);\r\n\r\n    struct Proposal {\r\n        address recipient;\r\n        uint amount;\r\n        string description;\r\n        bool executed;\r\n        int currentResult;\r\n        bytes32 proposalHash;\r\n        uint creationDate;\r\n        Vote[] votes;\r\n        mapping (address => bool) voted;\r\n    }\r\n\r\n    struct Member {\r\n        address member;\r\n        string name;\r\n        uint memberSince;\r\n    }\r\n\r\n    struct Vote {\r\n        bool inSupport;\r\n        address voter;\r\n        string justification;\r\n    }\r\n\r\n    // Modifier that allows only shareholders to vote and create new proposals\r\n    modifier onlyMembers {\r\n        require(memberId[msg.sender] != 0);\r\n        _;\r\n    }\r\n\r\n    /**\r\n     * Constructor function\r\n     *\r\n     * First time setup\r\n     */\r\n    function TimeLockMultisig(address founder, address[] initialMembers, uint minimumAmountOfMinutes) payable {\r\n        if (founder != 0) owner = founder;\r\n        if (minimumAmountOfMinutes !=0) minimumTime = minimumAmountOfMinutes;\r\n        // It’s necessary to add an empty first member\r\n        addMember(0, '');\r\n        // and let's add the founder, to save a step later\r\n        addMember(owner, 'founder');\r\n        changeMembers(initialMembers, true);\r\n    }\r\n\r\n    /**\r\n     * Add member\r\n     *\r\n     * @param targetMember address to add as a member\r\n     * @param memberName label to give this member address\r\n     */\r\n    function addMember(address targetMember, string memberName) onlyOwner {\r\n        uint id;\r\n        if (memberId[targetMember] == 0) {\r\n            memberId[targetMember] = members.length;\r\n            id = members.length++;\r\n        } else {\r\n            id = memberId[targetMember];\r\n        }\r\n\r\n        members[id] = Member({member: targetMember, memberSince: now, name: memberName});\r\n        MembershipChanged(targetMember, true);\r\n    }\r\n\r\n    /**\r\n     * Remove member\r\n     *\r\n     * @param targetMember the member to remove\r\n     */\r\n    function removeMember(address targetMember) onlyOwner {\r\n        require(memberId[targetMember] != 0);\r\n\r\n        for (uint i = memberId[targetMember]; i<members.length-1; i++){\r\n            members[i] = members[i+1];\r\n        }\r\n        delete members[members.length-1];\r\n        members.length--;\r\n    }\r\n\r\n    /**\r\n     * Edit existing members\r\n     *\r\n     * @param newMembers array of addresses to update\r\n     * @param canVote new voting value that all the values should be set to\r\n     */\r\n    function changeMembers(address[] newMembers, bool canVote) {\r\n        for (uint i = 0; i < newMembers.length; i++) {\r\n            if (canVote)\r\n                addMember(newMembers[i], '');\r\n            else\r\n                removeMember(newMembers[i]);\r\n        }\r\n    }\r\n\r\n    /**\r\n     * Add Proposal\r\n     *\r\n     * Propose to send `weiAmount / 1e18` ether to `beneficiary` for `jobDescription`. `transactionBytecode ? Contains : Does not contain` code.\r\n     *\r\n     * @param beneficiary who to send the ether to\r\n     * @param weiAmount amount of ether to send, in wei\r\n     * @param jobDescription Description of job\r\n     * @param transactionBytecode bytecode of transaction\r\n     */\r\n    function newProposal(\r\n        address beneficiary,\r\n        uint weiAmount,\r\n        string jobDescription,\r\n        bytes transactionBytecode\r\n    )\r\n        onlyMembers\r\n        returns (uint proposalID)\r\n    {\r\n        proposalID = proposals.length++;\r\n        Proposal storage p = proposals[proposalID];\r\n        p.recipient = beneficiary;\r\n        p.amount = weiAmount;\r\n        p.description = jobDescription;\r\n        p.proposalHash = sha3(beneficiary, weiAmount, transactionBytecode);\r\n        p.executed = false;\r\n        p.creationDate = now;\r\n        ProposalAdded(proposalID, beneficiary, weiAmount, jobDescription);\r\n        numProposals = proposalID+1;\r\n        vote(proposalID, true, '');\r\n\r\n        return proposalID;\r\n    }\r\n\r\n    /**\r\n     * Add proposal in Ether\r\n     *\r\n     * Propose to send `etherAmount` ether to `beneficiary` for `jobDescription`. `transactionBytecode ? Contains : Does not contain` code.\r\n     * This is a convenience function to use if the amount to be given is in round number of ether units.\r\n     *\r\n     * @param beneficiary who to send the ether to\r\n     * @param etherAmount amount of ether to send\r\n     * @param jobDescription Description of job\r\n     * @param transactionBytecode bytecode of transaction\r\n     */\r\n    function newProposalInEther(\r\n        address beneficiary,\r\n        uint etherAmount,\r\n        string jobDescription,\r\n        bytes transactionBytecode\r\n    )\r\n        onlyMembers\r\n        returns (uint proposalID)\r\n    {\r\n        return newProposal(beneficiary, etherAmount * 1 ether, jobDescription, transactionBytecode);\r\n    }\r\n\r\n    /**\r\n     * Check if a proposal code matches\r\n     *\r\n     * @param proposalNumber ID number of the proposal to query\r\n     * @param beneficiary who to send the ether to\r\n     * @param weiAmount amount of ether to send\r\n     * @param transactionBytecode bytecode of transaction\r\n     */\r\n    function checkProposalCode(\r\n        uint proposalNumber,\r\n        address beneficiary,\r\n        uint weiAmount,\r\n        bytes transactionBytecode\r\n    )\r\n        constant\r\n        returns (bool codeChecksOut)\r\n    {\r\n        Proposal storage p = proposals[proposalNumber];\r\n        return p.proposalHash == sha3(beneficiary, weiAmount, transactionBytecode);\r\n    }\r\n\r\n    /**\r\n     * Log a vote for a proposal\r\n     *\r\n     * Vote `supportsProposal? in support of : against` proposal #`proposalNumber`\r\n     *\r\n     * @param proposalNumber number of proposal\r\n     * @param supportsProposal either in favor or against it\r\n     * @param justificationText optional justification text\r\n     */\r\n    function vote(\r\n        uint proposalNumber,\r\n        bool supportsProposal,\r\n        string justificationText\r\n    )\r\n        onlyMembers\r\n    {\r\n        Proposal storage p = proposals[proposalNumber]; // Get the proposal\r\n        require(p.voted[msg.sender] != true);           // If has already voted, cancel\r\n        p.voted[msg.sender] = true;                     // Set this voter as having voted\r\n        if (supportsProposal) {                         // If they support the proposal\r\n            p.currentResult++;                          // Increase score\r\n        } else {                                        // If they don't\r\n            p.currentResult--;                          // Decrease the score\r\n        }\r\n\r\n        // Create a log of this event\r\n        Voted(proposalNumber,  supportsProposal, msg.sender, justificationText);\r\n\r\n        // If you can execute it now, do it\r\n        if ( now > proposalDeadline(proposalNumber)\r\n            && p.currentResult > 0\r\n            && p.proposalHash == sha3(p.recipient, p.amount, '')\r\n            && supportsProposal) {\r\n            executeProposal(proposalNumber, '');\r\n        }\r\n    }\r\n\r\n    function proposalDeadline(uint proposalNumber) constant returns(uint deadline) {\r\n        Proposal storage p = proposals[proposalNumber];\r\n        uint factor = calculateFactor(uint(p.currentResult), (members.length - 1));\r\n        return p.creationDate + uint(factor * minimumTime *  1 minutes);\r\n    }\r\n\r\n    function calculateFactor(uint a, uint b) constant returns (uint factor) {\r\n        return 2**(20 - (20 * a)/b);\r\n    }\r\n\r\n    /**\r\n     * Finish vote\r\n     *\r\n     * Count the votes proposal #`proposalNumber` and execute it if approved\r\n     *\r\n     * @param proposalNumber proposal number\r\n     * @param transactionBytecode optional: if the transaction contained a bytecode, you need to send it\r\n     */\r\n    function executeProposal(uint proposalNumber, bytes transactionBytecode) {\r\n        Proposal storage p = proposals[proposalNumber];\r\n\r\n        require(now >= proposalDeadline(proposalNumber)                                         // If it is past the voting deadline\r\n            && p.currentResult > 0                                                              // and a minimum quorum has been reached\r\n            && !p.executed                                                                      // and it is not currently being executed\r\n            && checkProposalCode(proposalNumber, p.recipient, p.amount, transactionBytecode));  // and the supplied code matches the proposal...\r\n\r\n\r\n        p.executed = true;\r\n        assert(p.recipient.call.value(p.amount)(transactionBytecode));\r\n\r\n        // Fire Events\r\n        ProposalExecuted(proposalNumber, p.currentResult, proposalDeadline(proposalNumber));\r\n    }\r\n}\r\n",
  "sourcePath": "D:\\Projects\\stokcoin\\contracts\\StokVel.sol",
  "compiler": {
    "name": "solc",
    "version": "0.4.24+commit.e67f0147.Emscripten.clang"
  },
  "schemaVersion": "2.0.1",
  "updatedAt": "2018-09-28T14:13:22.592Z"
}